{
  "_format": "hh-sol-artifact-1",
  "contractName": "ContextRegistry",
  "sourceName": "contracts/ContextRegistry.sol",
  "abi": [
    {
      "inputs": [
        {
          "internalType": "contract ContextToken",
          "name": "_token",
          "type": "address"
        },
        {
          "internalType": "address",
          "name": "contextNFT",
          "type": "address"
        },
        {
          "internalType": "contract ContextSettings",
          "name": "contextSettings",
          "type": "address"
        },
        {
          "internalType": "address",
          "name": "newOwner",
          "type": "address"
        }
      ],
      "stateMutability": "nonpayable",
      "type": "constructor"
    },
    {
      "inputs": [],
      "name": "EnforcedPause",
      "type": "error"
    },
    {
      "inputs": [],
      "name": "ExpectedPause",
      "type": "error"
    },
    {
      "inputs": [],
      "name": "FailedToPayFees",
      "type": "error"
    },
    {
      "inputs": [],
      "name": "InvalidAddress",
      "type": "error"
    },
    {
      "inputs": [
        {
          "internalType": "string",
          "name": "",
          "type": "string"
        }
      ],
      "name": "InvalidName",
      "type": "error"
    },
    {
      "inputs": [],
      "name": "InvalidNode",
      "type": "error"
    },
    {
      "inputs": [],
      "name": "InvalidPath",
      "type": "error"
    },
    {
      "inputs": [],
      "name": "InvalidVersion",
      "type": "error"
    },
    {
      "inputs": [
        {
          "internalType": "bytes32",
          "name": "",
          "type": "bytes32"
        },
        {
          "internalType": "address",
          "name": "",
          "type": "address"
        },
        {
          "internalType": "string",
          "name": "",
          "type": "string"
        }
      ],
      "name": "NotAllowed",
      "type": "error"
    },
    {
      "inputs": [
        {
          "internalType": "bytes32",
          "name": "",
          "type": "bytes32"
        }
      ],
      "name": "NotEnoughTokens",
      "type": "error"
    },
    {
      "inputs": [
        {
          "internalType": "address",
          "name": "owner",
          "type": "address"
        }
      ],
      "name": "OwnableInvalidOwner",
      "type": "error"
    },
    {
      "inputs": [
        {
          "internalType": "address",
          "name": "account",
          "type": "address"
        }
      ],
      "name": "OwnableUnauthorizedAccount",
      "type": "error"
    },
    {
      "inputs": [],
      "name": "ReentrancyGuardReentrantCall",
      "type": "error"
    },
    {
      "anonymous": false,
      "inputs": [
        {
          "indexed": false,
          "internalType": "address",
          "name": "sender",
          "type": "address"
        },
        {
          "indexed": false,
          "internalType": "bytes32",
          "name": "nameHash",
          "type": "bytes32"
        },
        {
          "indexed": false,
          "internalType": "uint256",
          "name": "amount",
          "type": "uint256"
        }
      ],
      "name": "Deposit",
      "type": "event"
    },
    {
      "anonymous": false,
      "inputs": [
        {
          "indexed": false,
          "internalType": "bytes32",
          "name": "nameHash",
          "type": "bytes32"
        },
        {
          "indexed": false,
          "internalType": "address",
          "name": "newOwner",
          "type": "address"
        }
      ],
      "name": "NewEditor",
      "type": "event"
    },
    {
      "anonymous": false,
      "inputs": [
        {
          "indexed": false,
          "internalType": "uint256",
          "name": "",
          "type": "uint256"
        },
        {
          "indexed": false,
          "internalType": "address",
          "name": "",
          "type": "address"
        },
        {
          "indexed": false,
          "internalType": "contract ContextSettings",
          "name": "",
          "type": "address"
        }
      ],
      "name": "NewEpoch",
      "type": "event"
    },
    {
      "anonymous": false,
      "inputs": [
        {
          "indexed": false,
          "internalType": "bytes32",
          "name": "nameHash",
          "type": "bytes32"
        },
        {
          "indexed": false,
          "internalType": "address",
          "name": "newOwner",
          "type": "address"
        }
      ],
      "name": "NewOnwer",
      "type": "event"
    },
    {
      "anonymous": false,
      "inputs": [
        {
          "indexed": true,
          "internalType": "address",
          "name": "previousOwner",
          "type": "address"
        },
        {
          "indexed": true,
          "internalType": "address",
          "name": "newOwner",
          "type": "address"
        }
      ],
      "name": "OwnershipTransferred",
      "type": "event"
    },
    {
      "anonymous": false,
      "inputs": [
        {
          "indexed": false,
          "internalType": "address",
          "name": "account",
          "type": "address"
        }
      ],
      "name": "Paused",
      "type": "event"
    },
    {
      "anonymous": false,
      "inputs": [
        {
          "indexed": false,
          "internalType": "bytes32",
          "name": "nameHash",
          "type": "bytes32"
        },
        {
          "indexed": false,
          "internalType": "uint64",
          "name": "currentVersion",
          "type": "uint64"
        },
        {
          "indexed": false,
          "internalType": "string",
          "name": "path",
          "type": "string"
        },
        {
          "indexed": false,
          "internalType": "uint8",
          "name": "version",
          "type": "uint8"
        }
      ],
      "name": "Pushed",
      "type": "event"
    },
    {
      "anonymous": false,
      "inputs": [
        {
          "indexed": false,
          "internalType": "bytes32",
          "name": "fromNameHash",
          "type": "bytes32"
        },
        {
          "indexed": false,
          "internalType": "string",
          "name": "name",
          "type": "string"
        },
        {
          "indexed": false,
          "internalType": "bytes32",
          "name": "newNameHash",
          "type": "bytes32"
        },
        {
          "indexed": false,
          "internalType": "address",
          "name": "newOwner",
          "type": "address"
        },
        {
          "indexed": false,
          "internalType": "uint256",
          "name": "tokens",
          "type": "uint256"
        }
      ],
      "name": "Registered",
      "type": "event"
    },
    {
      "anonymous": false,
      "inputs": [
        {
          "indexed": false,
          "internalType": "address",
          "name": "sender",
          "type": "address"
        },
        {
          "indexed": false,
          "internalType": "bytes32",
          "name": "nameFromHash",
          "type": "bytes32"
        },
        {
          "indexed": false,
          "internalType": "bytes32",
          "name": "nameToHash",
          "type": "bytes32"
        },
        {
          "indexed": false,
          "internalType": "uint256",
          "name": "amount",
          "type": "uint256"
        }
      ],
      "name": "Sent",
      "type": "event"
    },
    {
      "anonymous": false,
      "inputs": [
        {
          "indexed": false,
          "internalType": "bytes32",
          "name": "nameHash",
          "type": "bytes32"
        },
        {
          "indexed": false,
          "internalType": "string",
          "name": "path",
          "type": "string"
        },
        {
          "indexed": false,
          "internalType": "address",
          "name": "editor",
          "type": "address"
        },
        {
          "indexed": false,
          "internalType": "bool",
          "name": "value",
          "type": "bool"
        }
      ],
      "name": "SetCanEdit",
      "type": "event"
    },
    {
      "anonymous": false,
      "inputs": [
        {
          "indexed": false,
          "internalType": "address",
          "name": "account",
          "type": "address"
        }
      ],
      "name": "Unpaused",
      "type": "event"
    },
    {
      "anonymous": false,
      "inputs": [
        {
          "indexed": false,
          "internalType": "address",
          "name": "sender",
          "type": "address"
        },
        {
          "indexed": false,
          "internalType": "bytes32",
          "name": "nameHash",
          "type": "bytes32"
        },
        {
          "indexed": false,
          "internalType": "uint256",
          "name": "amount",
          "type": "uint256"
        }
      ],
      "name": "Withdraw",
      "type": "event"
    },
    {
      "inputs": [
        {
          "internalType": "bytes32",
          "name": "nameHash",
          "type": "bytes32"
        }
      ],
      "name": "balanceOf",
      "outputs": [
        {
          "internalType": "uint256",
          "name": "",
          "type": "uint256"
        }
      ],
      "stateMutability": "view",
      "type": "function"
    },
    {
      "inputs": [
        {
          "internalType": "bytes32",
          "name": "nameHash",
          "type": "bytes32"
        },
        {
          "internalType": "address",
          "name": "newEditor",
          "type": "address"
        }
      ],
      "name": "changeEditor",
      "outputs": [],
      "stateMutability": "nonpayable",
      "type": "function"
    },
    {
      "inputs": [
        {
          "internalType": "address",
          "name": "contextNFT",
          "type": "address"
        },
        {
          "internalType": "contract ContextSettings",
          "name": "contextSettings",
          "type": "address"
        }
      ],
      "name": "changeEpoch",
      "outputs": [],
      "stateMutability": "nonpayable",
      "type": "function"
    },
    {
      "inputs": [
        {
          "internalType": "bytes32",
          "name": "nameHash",
          "type": "bytes32"
        },
        {
          "internalType": "address",
          "name": "newOwner",
          "type": "address"
        }
      ],
      "name": "changeOwner",
      "outputs": [],
      "stateMutability": "nonpayable",
      "type": "function"
    },
    {
      "inputs": [],
      "name": "currentEpoch",
      "outputs": [
        {
          "internalType": "uint256",
          "name": "",
          "type": "uint256"
        }
      ],
      "stateMutability": "view",
      "type": "function"
    },
    {
      "inputs": [
        {
          "internalType": "bytes32",
          "name": "nameHash",
          "type": "bytes32"
        },
        {
          "internalType": "uint256",
          "name": "amount",
          "type": "uint256"
        }
      ],
      "name": "deposit",
      "outputs": [],
      "stateMutability": "nonpayable",
      "type": "function"
    },
    {
      "inputs": [
        {
          "internalType": "uint256",
          "name": "",
          "type": "uint256"
        }
      ],
      "name": "epochs",
      "outputs": [
        {
          "internalType": "address",
          "name": "contextNFT",
          "type": "address"
        },
        {
          "internalType": "contract ContextSettings",
          "name": "contextSettings",
          "type": "address"
        }
      ],
      "stateMutability": "view",
      "type": "function"
    },
    {
      "inputs": [],
      "name": "owner",
      "outputs": [
        {
          "internalType": "address",
          "name": "",
          "type": "address"
        }
      ],
      "stateMutability": "view",
      "type": "function"
    },
    {
      "inputs": [],
      "name": "pause",
      "outputs": [],
      "stateMutability": "nonpayable",
      "type": "function"
    },
    {
      "inputs": [],
      "name": "paused",
      "outputs": [
        {
          "internalType": "bool",
          "name": "",
          "type": "bool"
        }
      ],
      "stateMutability": "view",
      "type": "function"
    },
    {
      "inputs": [
        {
          "internalType": "bytes32",
          "name": "nameHash",
          "type": "bytes32"
        },
        {
          "internalType": "string",
          "name": "path",
          "type": "string"
        },
        {
          "internalType": "uint8",
          "name": "version",
          "type": "uint8"
        },
        {
          "internalType": "string",
          "name": "txId",
          "type": "string"
        }
      ],
      "name": "push",
      "outputs": [],
      "stateMutability": "payable",
      "type": "function"
    },
    {
      "inputs": [
        {
          "internalType": "bytes32",
          "name": "nameHash",
          "type": "bytes32"
        }
      ],
      "name": "readNode",
      "outputs": [
        {
          "internalType": "uint256",
          "name": "nodeId",
          "type": "uint256"
        },
        {
          "internalType": "address",
          "name": "owner",
          "type": "address"
        },
        {
          "internalType": "address",
          "name": "editor",
          "type": "address"
        },
        {
          "internalType": "uint256",
          "name": "totalPaths",
          "type": "uint256"
        },
        {
          "internalType": "uint256",
          "name": "tokens",
          "type": "uint256"
        },
        {
          "internalType": "bytes32",
          "name": "registrar",
          "type": "bytes32"
        }
      ],
      "stateMutability": "view",
      "type": "function"
    },
    {
      "inputs": [
        {
          "internalType": "bytes32",
          "name": "nameHash",
          "type": "bytes32"
        },
        {
          "internalType": "bytes32",
          "name": "pathHash",
          "type": "bytes32"
        },
        {
          "internalType": "uint64",
          "name": "_version",
          "type": "uint64"
        }
      ],
      "name": "readPath",
      "outputs": [
        {
          "internalType": "uint64",
          "name": "version",
          "type": "uint64"
        },
        {
          "internalType": "string",
          "name": "txId",
          "type": "string"
        }
      ],
      "stateMutability": "view",
      "type": "function"
    },
    {
      "inputs": [
        {
          "internalType": "bytes32",
          "name": "fromNameHash",
          "type": "bytes32"
        },
        {
          "internalType": "string",
          "name": "name",
          "type": "string"
        },
        {
          "internalType": "address",
          "name": "newOwner",
          "type": "address"
        },
        {
          "internalType": "uint256",
          "name": "tokens",
          "type": "uint256"
        }
      ],
      "name": "register",
      "outputs": [],
      "stateMutability": "payable",
      "type": "function"
    },
    {
      "inputs": [
        {
          "internalType": "bytes32",
          "name": "",
          "type": "bytes32"
        }
      ],
      "name": "registry",
      "outputs": [
        {
          "internalType": "address",
          "name": "owner",
          "type": "address"
        },
        {
          "internalType": "address",
          "name": "editor",
          "type": "address"
        },
        {
          "internalType": "uint256",
          "name": "nodeId",
          "type": "uint256"
        },
        {
          "internalType": "uint256",
          "name": "nodes",
          "type": "uint256"
        },
        {
          "internalType": "uint256",
          "name": "totalPaths",
          "type": "uint256"
        },
        {
          "internalType": "uint256",
          "name": "tokens",
          "type": "uint256"
        },
        {
          "internalType": "bytes32",
          "name": "registrar",
          "type": "bytes32"
        }
      ],
      "stateMutability": "view",
      "type": "function"
    },
    {
      "inputs": [],
      "name": "renounceOwnership",
      "outputs": [],
      "stateMutability": "nonpayable",
      "type": "function"
    },
    {
      "inputs": [
        {
          "internalType": "bytes32",
          "name": "nameHash",
          "type": "bytes32"
        },
        {
          "internalType": "string",
          "name": "path",
          "type": "string"
        },
        {
          "internalType": "address",
          "name": "editor",
          "type": "address"
        },
        {
          "internalType": "bool",
          "name": "value",
          "type": "bool"
        }
      ],
      "name": "setCanEdit",
      "outputs": [],
      "stateMutability": "nonpayable",
      "type": "function"
    },
    {
      "inputs": [],
      "name": "token",
      "outputs": [
        {
          "internalType": "contract ContextToken",
          "name": "",
          "type": "address"
        }
      ],
      "stateMutability": "view",
      "type": "function"
    },
    {
      "inputs": [
        {
          "internalType": "bytes32",
          "name": "nameFromHash",
          "type": "bytes32"
        },
        {
          "internalType": "bytes32",
          "name": "nameToHash",
          "type": "bytes32"
        },
        {
          "internalType": "uint256",
          "name": "amount",
          "type": "uint256"
        }
      ],
      "name": "transfer",
      "outputs": [],
      "stateMutability": "nonpayable",
      "type": "function"
    },
    {
      "inputs": [
        {
          "internalType": "address",
          "name": "newOwner",
          "type": "address"
        }
      ],
      "name": "transferOwnership",
      "outputs": [],
      "stateMutability": "nonpayable",
      "type": "function"
    },
    {
      "inputs": [],
      "name": "unpause",
      "outputs": [],
      "stateMutability": "nonpayable",
      "type": "function"
    },
    {
      "inputs": [
        {
          "internalType": "bytes32",
          "name": "nameHash",
          "type": "bytes32"
        },
        {
          "internalType": "uint256",
          "name": "amount",
          "type": "uint256"
        }
      ],
      "name": "withdraw",
      "outputs": [],
      "stateMutability": "nonpayable",
      "type": "function"
    }
  ],
  "bytecode": "0x60806040523480156200001157600080fd5b506040516200268b3803806200268b8339810160408190526200003491620002d9565b806001600160a01b0381166200006457604051631e4fbdf760e01b81526000600482015260240160405180910390fd5b6200006f8162000168565b5060018080556002805460ff19169055600480546001600160a01b038088166001600160a01b0319928316179092556003839055600560209081527f1471eb6eb2c5e789fc3de43f8ce62938c7d1836ec861730447e2ada8fd81017b80548885169084161790557f1471eb6eb2c5e789fc3de43f8ce62938c7d1836ec861730447e2ada8fd81017c80549387169390921692909217905560078054909201825560009182526040516200013091016618dbdb9d195e1d60ca1b815260070190565b6040516020818303038152906040528051906020012090506200015d8182336000620001b860201b60201c565b505050505062000369565b600080546001600160a01b038381166001600160a01b0319831681178455604051919092169283917f8be0079c531659141344cd1fd0a4f28419497f9722a3daafe3b4186f6b6457e09190a35050565b6040805160e0810182526001600160a01b0380851680835260208084019182526000848601818152606086018281526080870183815260a088018a815260c089018e81528d86526006968790528a86208a518154908b166001600160a01b0319918216178255985160018201805491909b169916989098179098559251600287015590516003860155516004850155516005808501919091559351929091019190915587815292909220909101546200027390839062000341565b60008681526006602052604081206005019190915560078054600190810180835591909252620002a4919062000341565b6000948552600660205260409094206002019390935550505050565b6001600160a01b0381168114620002d657600080fd5b50565b60008060008060808587031215620002f057600080fd5b8451620002fd81620002c0565b60208601519094506200031081620002c0565b60408601519093506200032381620002c0565b60608601519092506200033681620002c0565b939692955090935050565b818103818111156200036357634e487b7160e01b600052601160045260246000fd5b92915050565b61231280620003796000396000f3fe6080604052600436106101355760003560e01c80638456cb59116100ab578063ccf3433a1161006f578063ccf3433a14610405578063d3a5b1071461049d578063e158bb35146104bd578063e2c60fa3146104dd578063f2fde38b146104f0578063fc0c546a1461051057600080fd5b80638456cb591461032a5780638da5cb5b1461033f5780639ec388df14610371578063ae9f75e314610384578063c6b61e4c146103a457600080fd5b80635969ada8116100fd5780635969ada8146101e85780635c975abb146102085780636c7f15421461022b578063715018a614610259578063766718081461026e5780637ef502981461028457600080fd5b8063040cf0201461013a57806317d501101461015c5780631de26e161461017c5780633f4ba83a1461019c5780634686a249146101b1575b600080fd5b34801561014657600080fd5b5061015a610155366004611bb7565b610530565b005b34801561016857600080fd5b5061015a610177366004611bee565b61077a565b34801561018857600080fd5b5061015a610197366004611bb7565b610863565b3480156101a857600080fd5b5061015a6109c6565b3480156101bd57600080fd5b506101d16101cc366004611c27565b6109d8565b6040516101df929190611c6c565b60405180910390f35b3480156101f457600080fd5b5061015a610203366004611d21565b610c1b565b34801561021457600080fd5b5060025460ff1660405190151581526020016101df565b34801561023757600080fd5b5061024b610246366004611d94565b610d8d565b6040519081526020016101df565b34801561026557600080fd5b5061015a610e07565b34801561027a57600080fd5b5061024b60035481565b34801561029057600080fd5b506102ea61029f366004611d94565b600660208190526000918252604090912080546001820154600283015460038401546004850154600586015495909601546001600160a01b0394851696939094169491939092919087565b604080516001600160a01b039889168152979096166020880152948601939093526060850191909152608084015260a083015260c082015260e0016101df565b34801561033657600080fd5b5061015a610e19565b34801561034b57600080fd5b506000546001600160a01b03165b6040516001600160a01b0390911681526020016101df565b61015a61037f366004611dad565b610e29565b34801561039057600080fd5b5061015a61039f366004611e13565b611049565b3480156103b057600080fd5b506103e56103bf366004611d94565b600560205260009081526040902080546001909101546001600160a01b03918216911682565b604080516001600160a01b039384168152929091166020830152016101df565b34801561041157600080fd5b50610464610420366004611d94565b600090815260066020819052604090912060028101548154600183015460048401546005850154949095015492956001600160a01b03928316959290911693919290565b604080519687526001600160a01b03958616602088015293909416928501929092526060840152608083015260a082015260c0016101df565b3480156104a957600080fd5b5061015a6104b8366004611e3f565b6111c2565b3480156104c957600080fd5b5061015a6104d8366004611e3f565b6112b3565b61015a6104eb366004611e64565b61139e565b3480156104fc57600080fd5b5061015a61050b366004611ef7565b61170d565b34801561051c57600080fd5b50600454610359906001600160a01b031681565b61053861174b565b610540611775565b60035460010361059a5760405163752d8ad560e01b81526004810183905233602482015260606044820152601260648201527115da5d1a191c985dd39bdd105b1b1bddd95960721b608482015260a4015b60405180910390fd5b6000828152600660205260409020546001600160a01b03166105cf57604051637f19f48d60e01b815260040161059190611f1b565b6000828152600660205260409020546001600160a01b0316331461060a57813360405163752d8ad560e01b8152600401610591929190611f48565b60008281526006602052604090206005015481111561063f57604051632fc67ae760e11b815260048101839052602401610591565b600480546000848152600660205260409081902054905163a9059cbb60e01b81526001600160a01b039182169381019390935260248301849052169063a9059cbb906044016020604051808303816000875af11580156106a3573d6000803e3d6000fd5b505050506040513d601f19601f820116820180604052508101906106c79190611f82565b6107055760405162461bcd60e51b815260206004820152600f60248201526e151c985b9cd9995c8819985a5b1959608a1b6044820152606401610591565b60008281526006602052604081206005018054839290610726908490611fb5565b909155505060408051338152602081018490529081018290527fc3ded2be7db21b1af963f267d27750e4a15f174547d88b886b9bda43e2c6fa32906060015b60405180910390a161077660018055565b5050565b610782611775565b61078a611799565b6001600160a01b03821615806107a757506001600160a01b038116155b156107c55760405163e6c4247b60e01b815260040160405180910390fd5b6003546107d3906001611fc8565b6003818155600091825260056020908152604080842080546001600160a01b03199081166001600160a01b038981169182179093558554875295839020600101805490911691871691821790559254815190815291820193909352918201527f409d1df84a941a449aaa4ceea8b4c3e9900ea51cab9b7ef13c88a7a54e81d8529060600160405180910390a15050565b61086b61174b565b610873611775565b6000828152600660205260409020546001600160a01b03166108a857604051637f19f48d60e01b815260040161059190611f1b565b600480546040516323b872dd60e01b81523392810192909252306024830152604482018390526001600160a01b0316906323b872dd906064016020604051808303816000875af1158015610900573d6000803e3d6000fd5b505050506040513d601f19601f820116820180604052508101906109249190611f82565b6109625760405162461bcd60e51b815260206004820152600f60248201526e151c985b9cd9995c8819985a5b1959608a1b6044820152606401610591565b60008281526006602052604081206005018054839290610983908490611fc8565b909155505060408051338152602081018490529081018290527f19dacbf83c5de6658e14cbf7bcae5c15eca2eedecf1c66fbca928e4d351bea0f90606001610765565b6109ce611799565b6109d66117c6565b565b6000838152600660205260408120546060906001600160a01b0316610a3f5760405162461bcd60e51b815260206004820152601f60248201527f496e76616c69644e616d653a4e616d6549734e6f7452656769737465726564006044820152606401610591565b60008581526006602052604081206002015490819003610aa15760405162461bcd60e51b815260206004820152601860248201527f496e76616c69644e616d653a4e6f64654e6f74466f756e6400000000000000006044820152606401610591565b600060078281548110610ab657610ab6611fdb565b6000918252602080832089845260039092029091019081905260408220549092506001600160401b03169003610b2e5760405162461bcd60e51b815260206004820152601760248201527f496e76616c69644e616d653a496e76616c6964506174680000000000000000006044820152606401610591565b846001600160401b0316600003610b5e576000868152602082905260409020546001600160401b03169350610b62565b8493505b600086815260018201602090815260408083206001600160401b038816845290915290208054610b9190611ff1565b80601f0160208091040260200160405190810160405280929190818152602001828054610bbd90611ff1565b8015610c0a5780601f10610bdf57610100808354040283529160200191610c0a565b820191906000526020600020905b815481529060010190602001808311610bed57829003601f168201915b505050505092505050935093915050565b610c23611775565b6000858152600660205260409020546001600160a01b0316610c5857604051637f19f48d60e01b815260040161059190611f1b565b6000858152600660205260409020546001600160a01b03163314610c9357843360405163752d8ad560e01b8152600401610591929190611f48565b60008581526006602052604081206002015490819003610cc65760405163184096a160e11b815260040160405180910390fd5b600060078281548110610cdb57610cdb611fdb565b9060005260206000209060030201905060008686604051602001610d0092919061202b565b60408051808303601f19018152828252805160209182012060008181526002870183528381206001600160a01b038b168252909252919020805460ff191687151517905591507f4be980a72fb7bdb8706d67eeb4073b98452f3a4d15dfa32fe5bc3999bc6fe6d390610d7b908a908a908a908a908a90612064565b60405180910390a15050505050505050565b6000818152600660205260408120546001600160a01b0316610df15760405162461bcd60e51b815260206004820152601f60248201527f496e76616c69644e616d653a4e616d6549734e6f7452656769737465726564006044820152606401610591565b5060009081526006602052604090206005015490565b610e0f611799565b6109d66000611818565b610e21611799565b6109d6611868565b610e31611775565b6000858152600660205260409020546001600160a01b03163314610e6c57843360405163752d8ad560e01b8152600401610591929190611f48565b60008484604051602001610e8192919061202b565b60408051601f198184030181529181528151602092830120600081815260069093529120549091506001600160a01b031615610ef857604051637f19f48d60e01b815260206004820152601560248201527413985b59505b1c9958591e549959da5cdd195c9959605a1b6044820152606401610591565b6001600160a01b038316610f1f5760405163e6c4247b60e01b815260040160405180910390fd5b600086815260066020526040902060050154821115610f5457604051632fc67ae760e11b815260048101879052602401610591565b600354600090815260056020526040808220600101549051630b3542db60e21b8152829182916001600160a01b0390911690632cd50b6c90610f9e908c908c908c906004016120a0565b606060405180830381865afa158015610fbb573d6000803e3d6000fd5b505050506040513d601f19601f82011682018060405250810190610fdf91906120c3565b925092509250610ff1898383866118a5565b610ffd898588886119f8565b7f782fba2e16849dab876963d45782c1909ad278df15406d3586867da37c11994d898989878a8a604051611036969594939291906120fa565b60405180910390a1505050505050505050565b61105161174b565b611059611775565b6000838152600660205260409020546001600160a01b0316158061109257506000828152600660205260409020546001600160a01b0316155b156110b057604051637f19f48d60e01b815260040161059190611f1b565b6000838152600660205260409020546001600160a01b031633146110eb57823360405163752d8ad560e01b8152600401610591929190611f48565b60008381526006602052604090206005015481111561112057604051632fc67ae760e11b815260048101849052602401610591565b60008381526006602052604081206005018054839290611141908490611fb5565b909155505060008281526006602052604081206005018054839290611167908490611fc8565b90915550506040805133815260208101859052908101839052606081018290527f61caf9077a1f6cab5363e077fe1077cccceb996bcf6f6c5d63c635ccccf14ee09060800160405180910390a16111bd60018055565b505050565b6111ca611775565b6000828152600660205260409020600281015490546001600160a01b031615806111f2575080155b1561121057604051637f19f48d60e01b815260040161059190611f1b565b6000838152600660205260409020546001600160a01b0316331461124b57823360405163752d8ad560e01b8152600401610591929190611f48565b60008381526006602090815260409182902080546001600160a01b0319166001600160a01b0386169081179091558251868152918201527f2bf99dd1d076dcaa86c97f65fa26f64af971ee3beb64b507924453f1a038975691015b60405180910390a1505050565b6112bb611775565b6000828152600660205260409020600281015490546001600160a01b031615806112e3575080155b1561130157604051637f19f48d60e01b815260040161059190611f1b565b6000838152600660205260409020546001600160a01b0316331461133c57823360405163752d8ad560e01b8152600401610591929190611f48565b60008381526006602090815260409182902060010180546001600160a01b0319166001600160a01b0386169081179091558251868152918201527fb182d2490c1e77be2a24839e8bfb9d00c770f5d928736d3a6d41558d8546e3fe91016112a6565b6113a6611775565b6000868152600660205260409020546001600160a01b03166113db57604051637f19f48d60e01b815260040161059190611f1b565b6000868152600660205260408120600201549081900361140e5760405163184096a160e11b815260040160405180910390fd5b60006007828154811061142357611423611fdb565b906000526020600020906003020190506000878760405160200161144892919061202b565b60408051601f19818403018152918152815160209283012060008c815260069093529120600101549091506001600160a01b031633148015906114a257506000898152600660205260409020546001600160a01b03163314155b80156114ca57506000818152600283016020908152604080832033845290915290205460ff16155b156115185760405163752d8ad560e01b8152600481018a905233602482015260606044820152601060648201526f10d85b1b195c90d85b9b9bdd11591a5d60821b608482015260a401610591565b6000818152602083905260409020546001600160401b0316600160ff8816108015611546575060038760ff16115b8061156757506001600160401b03811615801561156757508660ff16600114155b156115855760405163a9146eeb60e01b815260040160405180910390fd5b60006115918883611afc565b600354600090815260056020526040808220600101549051639cbc6ac560e01b8152600481018f905260ff8c1660248201529293509091829182916001600160a01b0390911690639cbc6ac590604401606060405180830381865afa1580156115fe573d6000803e3d6000fd5b505050506040513d601f19601f8201168201806040525081019061162291906120c3565b9250925092506116348e8383866118a5565b6000868152602088905260408120546001600160401b031690036116755760008e815260066020526040812060040180549161166f8361213b565b91905055505b600086815260208881526040808320805467ffffffffffffffff19166001600160401b03891690811790915560018b01835281842090845290915290206116bd8a8c836121b8565b507fd8ed764165fc673931e32df3fd9d316ccf7ed0a2c301029255d6b4e16e7394438e858f8f8f6040516116f5959493929190612278565b60405180910390a15050505050505050505050505050565b611715611799565b6001600160a01b03811661173f57604051631e4fbdf760e01b815260006004820152602401610591565b61174881611818565b50565b60026001540361176e57604051633ee5aeb560e01b815260040160405180910390fd5b6002600155565b60025460ff16156109d65760405163d93c066560e01b815260040160405180910390fd5b6000546001600160a01b031633146109d65760405163118cdaa760e01b8152336004820152602401610591565b6117ce611b94565b6002805460ff191690557f5db9ee0a495bf2e6ff9c91a7834c1ba4fdd244a5e8aa4e537bd38aeae4b073aa335b6040516001600160a01b03909116815260200160405180910390a1565b600080546001600160a01b038381166001600160a01b0319831681178455604051919092169283917f8be0079c531659141344cd1fd0a4f28419497f9722a3daafe3b4186f6b6457e09190a35050565b611870611775565b6002805460ff191660011790557f62e78cea01bee320cd4e420270b5ea74000d11b0c9f74754ebdbfc544b05a2586117fb3390565b82156118f15760405181906001600160a01b0382169085156108fc029086906000818181858888f193505050506118ef576040516315c6fba760e01b815260040160405180910390fd5b505b81156119f257600084815260066020526040902060050154821115611929576040516315c6fba760e01b815260040160405180910390fd5b600084815260066020526040902060050154611946908390611fb5565b600085815260066020526040908190206005019190915560048054915163a9059cbb60e01b81526001600160a01b03848116928201929092526024810185905291169063a9059cbb906044016020604051808303816000875af11580156119b1573d6000803e3d6000fd5b505050506040513d601f19601f820116820180604052508101906119d59190611f82565b6119f2576040516315c6fba760e01b815260040160405180910390fd5b50505050565b6040805160e0810182526001600160a01b0380851680835260208084019182526000848601818152606086018281526080870183815260a088018a815260c089018e81528d86526006968790528a86208a518154908b166001600160a01b0319918216178255985160018201805491909b16991698909817909855925160028701559051600386015551600485015551600580850191909155935192909101919091558781529290922090910154611ab1908390611fb5565b60008681526006602052604081206005019190915560078054600190810180835591909252611ae09190611fb5565b6000948552600660205260409094206002019390935550505050565b6000623fffff602a83901c16621fffff601584901c811690841660ff8616600103611b335782611b2b816122b6565b935050611b69565b8560ff16600203611b505781611b48816122b6565b925050611b69565b8560ff16600303611b695780611b65816122b6565b9150505b806015836001600160401b0316901b602a856001600160401b0316901b171793505050505b92915050565b60025460ff166109d657604051638dfc202b60e01b815260040160405180910390fd5b60008060408385031215611bca57600080fd5b50508035926020909101359150565b6001600160a01b038116811461174857600080fd5b60008060408385031215611c0157600080fd5b8235611c0c81611bd9565b91506020830135611c1c81611bd9565b809150509250929050565b600080600060608486031215611c3c57600080fd5b833592506020840135915060408401356001600160401b0381168114611c6157600080fd5b809150509250925092565b6001600160401b038316815260006020604081840152835180604085015260005b81811015611ca957858101830151858201606001528201611c8d565b506000606082860101526060601f19601f830116850101925050509392505050565b60008083601f840112611cdd57600080fd5b5081356001600160401b03811115611cf457600080fd5b602083019150836020828501011115611d0c57600080fd5b9250929050565b801515811461174857600080fd5b600080600080600060808688031215611d3957600080fd5b8535945060208601356001600160401b03811115611d5657600080fd5b611d6288828901611ccb565b9095509350506040860135611d7681611bd9565b91506060860135611d8681611d13565b809150509295509295909350565b600060208284031215611da657600080fd5b5035919050565b600080600080600060808688031215611dc557600080fd5b8535945060208601356001600160401b03811115611de257600080fd5b611dee88828901611ccb565b9095509350506040860135611e0281611bd9565b949793965091946060013592915050565b600080600060608486031215611e2857600080fd5b505081359360208301359350604090920135919050565b60008060408385031215611e5257600080fd5b823591506020830135611c1c81611bd9565b60008060008060008060808789031215611e7d57600080fd5b8635955060208701356001600160401b0380821115611e9b57600080fd5b611ea78a838b01611ccb565b90975095506040890135915060ff82168214611ec257600080fd5b90935060608801359080821115611ed857600080fd5b50611ee589828a01611ccb565b979a9699509497509295939492505050565b600060208284031215611f0957600080fd5b8135611f1481611bd9565b9392505050565b60208082526013908201527213985b59525cd39bdd149959da5cdd195c9959606a1b604082015260600190565b9182526001600160a01b03166020820152606060408201819052600b908201526a2737ba2a3432a7bbb732b960a91b608082015260a00190565b600060208284031215611f9457600080fd5b8151611f1481611d13565b634e487b7160e01b600052601160045260246000fd5b81810381811115611b8e57611b8e611f9f565b80820180821115611b8e57611b8e611f9f565b634e487b7160e01b600052603260045260246000fd5b600181811c9082168061200557607f821691505b60208210810361202557634e487b7160e01b600052602260045260246000fd5b50919050565b8183823760009101908152919050565b81835281816020850137506000828201602090810191909152601f909101601f19169091010190565b85815260806020820152600061207e60808301868861203b565b6001600160a01b03949094166040830152509015156060909101529392505050565b8381526040602082015260006120ba60408301848661203b565b95945050505050565b6000806000606084860312156120d857600080fd5b83516120e381611bd9565b602085015160409095015190969495509392505050565b86815260a06020820152600061211460a08301878961203b565b6040830195909552506001600160a01b039290921660608301526080909101529392505050565b60006001820161214d5761214d611f9f565b5060010190565b634e487b7160e01b600052604160045260246000fd5b601f8211156111bd57600081815260208120601f850160051c810160208610156121915750805b601f850160051c820191505b818110156121b05782815560010161219d565b505050505050565b6001600160401b038311156121cf576121cf612154565b6121e3836121dd8354611ff1565b8361216a565b6000601f84116001811461221757600085156121ff5750838201355b600019600387901b1c1916600186901b178355612271565b600083815260209020601f19861690835b828110156122485786850135825560209485019460019092019101612228565b50868210156122655760001960f88860031b161c19848701351681555b505060018560011b0183555b5050505050565b8581526001600160401b03851660208201526080604082015260006122a160808301858761203b565b905060ff831660608301529695505050505050565b60006001600160401b038083168181036122d2576122d2611f9f565b600101939250505056fea2646970667358221220fc746184a6f3aa3b20b2252203f15b74c71bf56ced3155de1023d778f5ea7f4064736f6c63430008140033",
  "linkReferences": {},
  "deployedLinkReferences": {}
}